{
    "contractName": "Citizen",
    "abi": [
        {
            "inputs": [],
            "payable": false,
            "stateMutability": "nonpayable",
            "type": "constructor"
        },
        {
            "constant": true,
            "inputs": [
                {
                    "internalType": "uint256",
                    "name": "",
                    "type": "uint256"
                }
            ],
            "name": "auths",
            "outputs": [
                {
                    "internalType": "address",
                    "name": "authorityAddress",
                    "type": "address"
                },
                {
                    "internalType": "string",
                    "name": "authorityName",
                    "type": "string"
                },
                {
                    "internalType": "uint256",
                    "name": "authorityId",
                    "type": "uint256"
                },
                {
                    "internalType": "uint256",
                    "name": "authWeight",
                    "type": "uint256"
                }
            ],
            "payable": false,
            "stateMutability": "view",
            "type": "function"
        },
        {
            "constant": true,
            "inputs": [
                {
                    "internalType": "uint256",
                    "name": "",
                    "type": "uint256"
                }
            ],
            "name": "citizens",
            "outputs": [
                {
                    "internalType": "address",
                    "name": "citizenAddress",
                    "type": "address"
                },
                {
                    "internalType": "string",
                    "name": "citizenName",
                    "type": "string"
                },
                {
                    "internalType": "uint256",
                    "name": "citizenId",
                    "type": "uint256"
                }
            ],
            "payable": false,
            "stateMutability": "view",
            "type": "function"
        },
        {
            "constant": true,
            "inputs": [
                {
                    "internalType": "uint256",
                    "name": "",
                    "type": "uint256"
                }
            ],
            "name": "contracts",
            "outputs": [
                {
                    "internalType": "uint256",
                    "name": "countyId",
                    "type": "uint256"
                },
                {
                    "internalType": "uint256",
                    "name": "taskId",
                    "type": "uint256"
                },
                {
                    "internalType": "bool",
                    "name": "isIssued",
                    "type": "bool"
                },
                {
                    "internalType": "uint256",
                    "name": "votes",
                    "type": "uint256"
                }
            ],
            "payable": false,
            "stateMutability": "view",
            "type": "function"
        },
        {
            "constant": true,
            "inputs": [
                {
                    "internalType": "uint256",
                    "name": "",
                    "type": "uint256"
                }
            ],
            "name": "countys",
            "outputs": [
                {
                    "internalType": "address",
                    "name": "countyAddress",
                    "type": "address"
                },
                {
                    "internalType": "string",
                    "name": "countyTitle",
                    "type": "string"
                },
                {
                    "internalType": "uint256",
                    "name": "countyId",
                    "type": "uint256"
                }
            ],
            "payable": false,
            "stateMutability": "view",
            "type": "function"
        },
        {
            "constant": true,
            "inputs": [
                {
                    "internalType": "uint256",
                    "name": "",
                    "type": "uint256"
                }
            ],
            "name": "organizations",
            "outputs": [
                {
                    "internalType": "address",
                    "name": "organizationAddress",
                    "type": "address"
                },
                {
                    "internalType": "uint256",
                    "name": "organizationId",
                    "type": "uint256"
                },
                {
                    "internalType": "string",
                    "name": "organizationTitle",
                    "type": "string"
                }
            ],
            "payable": false,
            "stateMutability": "view",
            "type": "function"
        },
        {
            "constant": true,
            "inputs": [
                {
                    "internalType": "uint256",
                    "name": "",
                    "type": "uint256"
                }
            ],
            "name": "payments",
            "outputs": [
                {
                    "internalType": "address",
                    "name": "to",
                    "type": "address"
                },
                {
                    "internalType": "uint256",
                    "name": "cost",
                    "type": "uint256"
                }
            ],
            "payable": false,
            "stateMutability": "view",
            "type": "function"
        },
        {
            "constant": true,
            "inputs": [
                {
                    "internalType": "uint256",
                    "name": "",
                    "type": "uint256"
                }
            ],
            "name": "proposals",
            "outputs": [
                {
                    "internalType": "uint256",
                    "name": "organizationId",
                    "type": "uint256"
                },
                {
                    "internalType": "uint256",
                    "name": "contId",
                    "type": "uint256"
                },
                {
                    "internalType": "uint256",
                    "name": "costEstimate",
                    "type": "uint256"
                },
                {
                    "internalType": "string",
                    "name": "proposalDescription",
                    "type": "string"
                },
                {
                    "internalType": "string",
                    "name": "proposalTitle",
                    "type": "string"
                },
                {
                    "internalType": "bool",
                    "name": "is_awarded",
                    "type": "bool"
                }
            ],
            "payable": false,
            "stateMutability": "view",
            "type": "function"
        },
        {
            "constant": true,
            "inputs": [],
            "name": "state_gov",
            "outputs": [
                {
                    "internalType": "address",
                    "name": "",
                    "type": "address"
                }
            ],
            "payable": false,
            "stateMutability": "view",
            "type": "function"
        },
        {
            "constant": true,
            "inputs": [
                {
                    "internalType": "uint256",
                    "name": "",
                    "type": "uint256"
                }
            ],
            "name": "tasks",
            "outputs": [
                {
                    "internalType": "uint256",
                    "name": "taskId",
                    "type": "uint256"
                },
                {
                    "internalType": "string",
                    "name": "taskTitle",
                    "type": "string"
                },
                {
                    "internalType": "uint256",
                    "name": "propId",
                    "type": "uint256"
                },
                {
                    "internalType": "uint256",
                    "name": "numVotes",
                    "type": "uint256"
                },
                {
                    "internalType": "uint256",
                    "name": "status",
                    "type": "uint256"
                },
                {
                    "internalType": "bool",
                    "name": "is_completed",
                    "type": "bool"
                }
            ],
            "payable": false,
            "stateMutability": "view",
            "type": "function"
        },
        {
            "constant": true,
            "inputs": [
                {
                    "internalType": "uint256",
                    "name": "",
                    "type": "uint256"
                }
            ],
            "name": "votes",
            "outputs": [
                {
                    "internalType": "uint256",
                    "name": "contId",
                    "type": "uint256"
                },
                {
                    "internalType": "uint256",
                    "name": "vote_points",
                    "type": "uint256"
                }
            ],
            "payable": false,
            "stateMutability": "view",
            "type": "function"
        },
        {
            "constant": false,
            "inputs": [
                {
                    "internalType": "uint256",
                    "name": "task_id",
                    "type": "uint256"
                },
                {
                    "internalType": "string",
                    "name": "task_title",
                    "type": "string"
                }
            ],
            "name": "registerTask",
            "outputs": [],
            "payable": false,
            "stateMutability": "nonpayable",
            "type": "function"
        },
        {
            "constant": false,
            "inputs": [
                {
                    "internalType": "address",
                    "name": "county_address",
                    "type": "address"
                },
                {
                    "internalType": "uint256",
                    "name": "county_Id",
                    "type": "uint256"
                },
                {
                    "internalType": "string",
                    "name": "county_Title",
                    "type": "string"
                }
            ],
            "name": "registerCounty",
            "outputs": [],
            "payable": false,
            "stateMutability": "nonpayable",
            "type": "function"
        },
        {
            "constant": false,
            "inputs": [
                {
                    "internalType": "uint256",
                    "name": "task_id",
                    "type": "uint256"
                },
                {
                    "internalType": "uint256",
                    "name": "county_id",
                    "type": "uint256"
                }
            ],
            "name": "passContract",
            "outputs": [],
            "payable": false,
            "stateMutability": "nonpayable",
            "type": "function"
        },
        {
            "constant": false,
            "inputs": [
                {
                    "internalType": "address",
                    "name": "org_address",
                    "type": "address"
                },
                {
                    "internalType": "uint256",
                    "name": "org_Id",
                    "type": "uint256"
                },
                {
                    "internalType": "string",
                    "name": "org_title",
                    "type": "string"
                }
            ],
            "name": "registerOrganization",
            "outputs": [],
            "payable": false,
            "stateMutability": "nonpayable",
            "type": "function"
        },
        {
            "constant": false,
            "inputs": [
                {
                    "internalType": "uint256",
                    "name": "cont_id",
                    "type": "uint256"
                }
            ],
            "name": "issueContract",
            "outputs": [],
            "payable": false,
            "stateMutability": "nonpayable",
            "type": "function"
        },
        {
            "constant": false,
            "inputs": [
                {
                    "internalType": "uint256",
                    "name": "org_Id",
                    "type": "uint256"
                },
                {
                    "internalType": "uint256",
                    "name": "cont_Id",
                    "type": "uint256"
                },
                {
                    "internalType": "string",
                    "name": "prop_Desc",
                    "type": "string"
                },
                {
                    "internalType": "string",
                    "name": "prop_Title",
                    "type": "string"
                },
                {
                    "internalType": "uint256",
                    "name": "cost",
                    "type": "uint256"
                }
            ],
            "name": "registerProposal",
            "outputs": [],
            "payable": false,
            "stateMutability": "nonpayable",
            "type": "function"
        },
        {
            "constant": false,
            "inputs": [
                {
                    "internalType": "uint256",
                    "name": "cont_Id",
                    "type": "uint256"
                },
                {
                    "internalType": "uint256",
                    "name": "prop_Id",
                    "type": "uint256"
                }
            ],
            "name": "winningProposal",
            "outputs": [],
            "payable": false,
            "stateMutability": "nonpayable",
            "type": "function"
        },
        {
            "constant": false,
            "inputs": [
                {
                    "internalType": "address",
                    "name": "cit_address",
                    "type": "address"
                },
                {
                    "internalType": "uint256",
                    "name": "cit_Id",
                    "type": "uint256"
                },
                {
                    "internalType": "string",
                    "name": "cit_Name",
                    "type": "string"
                }
            ],
            "name": "registerCitizen",
            "outputs": [],
            "payable": false,
            "stateMutability": "nonpayable",
            "type": "function"
        },
        {
            "constant": false,
            "inputs": [
                {
                    "internalType": "uint256",
                    "name": "cont_Id",
                    "type": "uint256"
                },
                {
                    "internalType": "bool",
                    "name": "vote",
                    "type": "bool"
                }
            ],
            "name": "taskingVote",
            "outputs": [],
            "payable": false,
            "stateMutability": "nonpayable",
            "type": "function"
        },
        {
            "constant": true,
            "inputs": [
                {
                    "internalType": "uint256",
                    "name": "cont_id",
                    "type": "uint256"
                }
            ],
            "name": "verifyCompletion",
            "outputs": [
                {
                    "internalType": "bool",
                    "name": "",
                    "type": "bool"
                }
            ],
            "payable": false,
            "stateMutability": "view",
            "type": "function"
        },
        {
            "constant": false,
            "inputs": [
                {
                    "internalType": "uint256",
                    "name": "cont_id",
                    "type": "uint256"
                }
            ],
            "name": "payment",
            "outputs": [],
            "payable": false,
            "stateMutability": "nonpayable",
            "type": "function"
        }
    ],
    "bytecode": "0x60806040526040518060400160405280600681526020017f54656e64657200000000000000000000000000000000000000000000000000008152506000908051906020019062000051929190620000ec565b503480156200005f57600080fd5b5033600160006101000a81548173ffffffffffffffffffffffffffffffffffffffff021916908373ffffffffffffffffffffffffffffffffffffffff1602179055506001600b60003373ffffffffffffffffffffffffffffffffffffffff1673ffffffffffffffffffffffffffffffffffffffff168152602001908152602001600020819055506200019b565b828054600181600116156101000203166002900490600052602060002090601f016020900481019282601f106200012f57805160ff191683800117855562000160565b8280016001018555821562000160579182015b828111156200015f57825182559160200191906001019062000142565b5b5090506200016f919062000173565b5090565b6200019891905b80821115620001945760008160009055506001016200017a565b5090565b90565b61272680620001ab6000396000f3fe608060405234801561001057600080fd5b50600436106101375760003560e01c806387d81789116100b8578063a07d7bb81161007c578063a07d7bb814610a6d578063adbaa03d14610b52578063cc9fb47d14610b8a578063ccdef11014610c4f578063dd07508714610c95578063e792dd8a14610d7a57610137565b806387d81789146107525780638b3c99e3146107c75780638d977672146107f55780639551e091146108c35780639eaaa84c146108fd57610137565b806343e29d72116100ff57806343e29d7214610563578063474da79a1461059157806357bde194146105ec5780635df81330146106d157806383dc50481461071a57610137565b8063013cf08b1461013c578063068df3dd1461026f57806309a34f0014610357578063103349d51461043857806327afbbee14610519575b600080fd5b6101686004803603602081101561015257600080fd5b8101908080359060200190929190505050610e5b565b60405180878152602001868152602001858152602001806020018060200184151515158152602001838103835286818151815260200191508051906020019080838360005b838110156101c85780820151818401526020810190506101ad565b50505050905090810190601f1680156101f55780820380516001836020036101000a031916815260200191505b50838103825285818151815260200191508051906020019080838360005b8381101561022e578082015181840152602081019050610213565b50505050905090810190601f16801561025b5780820380516001836020036101000a031916815260200191505b509850505050505050505060405180910390f35b61029b6004803603602081101561028557600080fd5b8101908080359060200190929190505050610fe1565b604051808573ffffffffffffffffffffffffffffffffffffffff1673ffffffffffffffffffffffffffffffffffffffff16815260200180602001848152602001838152602001828103825285818151815260200191508051906020019080838360005b838110156103195780820151818401526020810190506102fe565b50505050905090810190601f1680156103465780820380516001836020036101000a031916815260200191505b509550505050505060405180910390f35b6103836004803603602081101561036d57600080fd5b81019080803590602001909291905050506110d6565b604051808473ffffffffffffffffffffffffffffffffffffffff1673ffffffffffffffffffffffffffffffffffffffff16815260200180602001838152602001828103825284818151815260200191508051906020019080838360005b838110156103fb5780820151818401526020810190506103e0565b50505050905090810190601f1680156104285780820380516001836020036101000a031916815260200191505b5094505050505060405180910390f35b6104646004803603602081101561044e57600080fd5b81019080803590602001909291905050506111c5565b604051808473ffffffffffffffffffffffffffffffffffffffff1673ffffffffffffffffffffffffffffffffffffffff16815260200180602001838152602001828103825284818151815260200191508051906020019080838360005b838110156104dc5780820151818401526020810190506104c1565b50505050905090810190601f1680156105095780820380516001836020036101000a031916815260200191505b5094505050505060405180910390f35b6105216112b4565b604051808273ffffffffffffffffffffffffffffffffffffffff1673ffffffffffffffffffffffffffffffffffffffff16815260200191505060405180910390f35b61058f6004803603602081101561057957600080fd5b81019080803590602001909291905050506112da565b005b6105bd600480360360208110156105a757600080fd5b8101908080359060200190929190505050611360565b604051808581526020018481526020018315151515815260200182815260200194505050505060405180910390f35b6106cf6004803603606081101561060257600080fd5b81019080803573ffffffffffffffffffffffffffffffffffffffff169060200190929190803590602001909291908035906020019064010000000081111561064957600080fd5b82018360208201111561065b57600080fd5b8035906020019184600183028401116401000000008311171561067d57600080fd5b91908080601f016020809104026020016040519081016040528093929190818152602001838380828437600081840152601f19601f8201169050808301925050505050505091929192905050506113aa565b005b6106fd600480360360208110156106e757600080fd5b8101908080359060200190929190505050611563565b604051808381526020018281526020019250505060405180910390f35b6107506004803603604081101561073057600080fd5b810190808035906020019092919080359060200190929190505050611594565b005b61077e6004803603602081101561076857600080fd5b81019080803590602001909291905050506116ce565b604051808373ffffffffffffffffffffffffffffffffffffffff1673ffffffffffffffffffffffffffffffffffffffff1681526020018281526020019250505060405180910390f35b6107f3600480360360208110156107dd57600080fd5b810190808035906020019092919050505061171f565b005b6108216004803603602081101561080b57600080fd5b8101908080359060200190929190505050611880565b604051808781526020018060200186815260200185815260200184815260200183151515158152602001828103825287818151815260200191508051906020019080838360005b83811015610883578082015181840152602081019050610868565b50505050905090810190601f1680156108b05780820380516001836020036101000a031916815260200191505b5097505050505050505060405180910390f35b6108fb600480360360408110156108d957600080fd5b810190808035906020019092919080351515906020019092919050505061196e565b005b610a6b600480360360a081101561091357600080fd5b8101908080359060200190929190803590602001909291908035906020019064010000000081111561094457600080fd5b82018360208201111561095657600080fd5b8035906020019184600183028401116401000000008311171561097857600080fd5b91908080601f016020809104026020016040519081016040528093929190818152602001838380828437600081840152601f19601f820116905080830192505050505050509192919290803590602001906401000000008111156109db57600080fd5b8201836020820111156109ed57600080fd5b80359060200191846001830284011164010000000083111715610a0f57600080fd5b91908080601f016020809104026020016040519081016040528093929190818152602001838380828437600081840152601f19601f82011690508083019250505050505050919291929080359060200190929190505050611c3a565b005b610b5060048036036060811015610a8357600080fd5b81019080803573ffffffffffffffffffffffffffffffffffffffff1690602001909291908035906020019092919080359060200190640100000000811115610aca57600080fd5b820183602082011115610adc57600080fd5b80359060200191846001830284011164010000000083111715610afe57600080fd5b91908080601f016020809104026020016040519081016040528093929190818152602001838380828437600081840152601f19601f820116905080830192505050505050509192919290505050611e4c565b005b610b8860048036036040811015610b6857600080fd5b810190808035906020019092919080359060200190929190505050612035565b005b610c4d60048036036040811015610ba057600080fd5b810190808035906020019092919080359060200190640100000000811115610bc757600080fd5b820183602082011115610bd957600080fd5b80359060200191846001830284011164010000000083111715610bfb57600080fd5b91908080601f016020809104026020016040519081016040528093929190818152602001838380828437600081840152601f19601f820116905080830192505050505050509192919290505050612155565b005b610c7b60048036036020811015610c6557600080fd5b81019080803590602001909291905050506122c1565b604051808215151515815260200191505060405180910390f35b610d7860048036036060811015610cab57600080fd5b81019080803573ffffffffffffffffffffffffffffffffffffffff1690602001909291908035906020019092919080359060200190640100000000811115610cf257600080fd5b820183602082011115610d0457600080fd5b80359060200191846001830284011164010000000083111715610d2657600080fd5b91908080601f016020809104026020016040519081016040528093929190818152602001838380828437600081840152601f19601f820116905080830192505050505050509192919290505050612357565b005b610da660048036036020811015610d9057600080fd5b8101908080359060200190929190505050612510565b604051808473ffffffffffffffffffffffffffffffffffffffff1673ffffffffffffffffffffffffffffffffffffffff16815260200183815260200180602001828103825283818151815260200191508051906020019080838360005b83811015610e1e578082015181840152602081019050610e03565b50505050905090810190601f168015610e4b5780820380516001836020036101000a031916815260200191505b5094505050505060405180910390f35b60058181548110610e6857fe5b9060005260206000209060060201600091509050806000015490806001015490806002015490806003018054600181600116156101000203166002900480601f016020809104026020016040519081016040528092919081815260200182805460018160011615610100020316600290048015610f265780601f10610efb57610100808354040283529160200191610f26565b820191906000526020600020905b815481529060010190602001808311610f0957829003601f168201915b505050505090806004018054600181600116156101000203166002900480601f016020809104026020016040519081016040528092919081815260200182805460018160011615610100020316600290048015610fc45780601f10610f9957610100808354040283529160200191610fc4565b820191906000526020600020905b815481529060010190602001808311610fa757829003601f168201915b5050505050908060050160009054906101000a900460ff16905086565b60078181548110610fee57fe5b90600052602060002090600502016000915090508060000160009054906101000a900473ffffffffffffffffffffffffffffffffffffffff1690806001018054600181600116156101000203166002900480601f0160208091040260200160405190810160405280929190818152602001828054600181600116156101000203166002900480156110c05780601f10611095576101008083540402835291602001916110c0565b820191906000526020600020905b8154815290600101906020018083116110a357829003601f168201915b5050505050908060020154908060030154905084565b600681815481106110e357fe5b90600052602060002090600302016000915090508060000160009054906101000a900473ffffffffffffffffffffffffffffffffffffffff1690806001018054600181600116156101000203166002900480601f0160208091040260200160405190810160405280929190818152602001828054600181600116156101000203166002900480156111b55780601f1061118a576101008083540402835291602001916111b5565b820191906000526020600020905b81548152906001019060200180831161119857829003601f168201915b5050505050908060020154905083565b600281815481106111d257fe5b90600052602060002090600402016000915090508060000160009054906101000a900473ffffffffffffffffffffffffffffffffffffffff1690806001018054600181600116156101000203166002900480601f0160208091040260200160405190810160405280929190818152602001828054600181600116156101000203166002900480156112a45780601f10611279576101008083540402835291602001916112a4565b820191906000526020600020905b81548152906001019060200180831161128757829003601f168201915b5050505050908060020154905083565b600160009054906101000a900473ffffffffffffffffffffffffffffffffffffffff1681565b6002600b60003373ffffffffffffffffffffffffffffffffffffffff1673ffffffffffffffffffffffffffffffffffffffff168152602001908152602001600020541461132657600080fd5b60016009828154811061133557fe5b906000526020600020906006020160020160006101000a81548160ff02191690831515021790555050565b6009818154811061136d57fe5b90600052602060002090600602016000915090508060000154908060010154908060020160009054906101000a900460ff16908060030154905084565b600160009054906101000a900473ffffffffffffffffffffffffffffffffffffffff1673ffffffffffffffffffffffffffffffffffffffff163373ffffffffffffffffffffffffffffffffffffffff161461140457600080fd5b6060600260405180608001604052808673ffffffffffffffffffffffffffffffffffffffff168152602001848152602001858152602001838152509080600181540180825580915050906001820390600052602060002090600402016000909192909190915060008201518160000160006101000a81548173ffffffffffffffffffffffffffffffffffffffff021916908373ffffffffffffffffffffffffffffffffffffffff16021790555060208201518160010190805190602001906114cd9291906125ff565b506040820151816002015560608201518160030190805190602001906114f492919061267f565b50505050600160028054905003600d6000858152602001908152602001600020819055506002600b60008673ffffffffffffffffffffffffffffffffffffffff1673ffffffffffffffffffffffffffffffffffffffff1681526020019081526020016000208190555050505050565b6008818154811061157057fe5b90600052602060002090600202016000915090508060000154908060010154905082565b600160009054906101000a900473ffffffffffffffffffffffffffffffffffffffff1673ffffffffffffffffffffffffffffffffffffffff163373ffffffffffffffffffffffffffffffffffffffff16146115ee57600080fd5b600080905060008090505b6009848154811061160657fe5b90600052602060002090600602016004018054905081101561166f57826009858154811061163057fe5b9060005260206000209060060201600401828154811061164c57fe5b9060005260206000200154141561166257600191505b80806001019150506115f9565b508061167a57600080fd5b60016005838154811061168957fe5b906000526020600020906006020160050160006101000a81548160ff02191690831515021790555081600c600085815260200190815260200160002081905550505050565b600a81815481106116db57fe5b90600052602060002090600202016000915090508060000160009054906101000a900473ffffffffffffffffffffffffffffffffffffffff16908060010154905082565b611728816122c1565b61173157600080fd5b600a604051806040016040528060046005600c6000878152602001908152602001600020548154811061176057fe5b9060005260206000209060060201600001548154811061177c57fe5b906000526020600020906004020160000160009054906101000a900473ffffffffffffffffffffffffffffffffffffffff1673ffffffffffffffffffffffffffffffffffffffff1681526020016005600c600086815260200190815260200160002054815481106117e957fe5b9060005260206000209060060201600201548152509080600181540180825580915050906001820390600052602060002090600202016000909192909190915060008201518160000160006101000a81548173ffffffffffffffffffffffffffffffffffffffff021916908373ffffffffffffffffffffffffffffffffffffffff1602179055506020820151816001015550505050565b6003818154811061188d57fe5b9060005260206000209060070201600091509050806000015490806001018054600181600116156101000203166002900480601f01602080910402602001604051908101604052809291908181526020018280546001816001161561010002031660029004801561193f5780601f106119145761010080835404028352916020019161193f565b820191906000526020600020905b81548152906001019060200180831161192257829003601f168201915b5050505050908060020154908060030154908060040154908060050160009054906101000a900460ff16905086565b6002600b60003373ffffffffffffffffffffffffffffffffffffffff1673ffffffffffffffffffffffffffffffffffffffff1681526020019081526020016000205414806119fb57506004600b60003373ffffffffffffffffffffffffffffffffffffffff1673ffffffffffffffffffffffffffffffffffffffff16815260200190815260200160002054145b8015611a2f575060098281548110611a0f57fe5b906000526020600020906006020160020160009054906101000a900460ff165b8015611aa1575060098281548110611a4357fe5b906000526020600020906006020160050160003373ffffffffffffffffffffffffffffffffffffffff1673ffffffffffffffffffffffffffffffffffffffff16815260200190815260200160002060009054906101000a900460ff16155b611aaa57600080fd5b6000600190506002600b60003373ffffffffffffffffffffffffffffffffffffffff1673ffffffffffffffffffffffffffffffffffffffff168152602001908152602001600020541415611afd57600590505b6008604051806040016040528085815260200183815250908060018154018082558091505090600182039060005260206000209060020201600090919290919091506000820151816000015560208201518160010155505050600160098481548110611b6557fe5b906000526020600020906006020160050160003373ffffffffffffffffffffffffffffffffffffffff1673ffffffffffffffffffffffffffffffffffffffff16815260200190815260200160002060006101000a81548160ff021916908315150217905550600115158215151415611c08578060098481548110611be557fe5b906000526020600020906006020160030160008282540192505081905550611c35565b8060098481548110611c1657fe5b9060005260206000209060060201600301600082825403925050819055505b505050565b6003600b60003373ffffffffffffffffffffffffffffffffffffffff1673ffffffffffffffffffffffffffffffffffffffff16815260200190815260200160002054148015611cb1575060098481548110611c9157fe5b906000526020600020906006020160020160009054906101000a900460ff165b611cba57600080fd5b60056040518060c0016040528087815260200186815260200183815260200185815260200184815260200160001515815250908060018154018082558091505090600182039060005260206000209060060201600090919290919091506000820151816000015560208201518160010155604082015181600201556060820151816003019080519060200190611d519291906125ff565b506080820151816004019080519060200190611d6e9291906125ff565b5060a08201518160050160006101000a81548160ff02191690831515021790555050505060098481548110611d9f57fe5b906000526020600020906006020160040160016005805490500390806001815401808255809150509060018203906000526020600020016000909192909190915055506004600e60008781526020019081526020016000205481548110611e0257fe5b906000526020600020906004020160030160016005805490500390806001815401808255809150509060018203906000526020600020016000909192909190915055505050505050565b600160009054906101000a900473ffffffffffffffffffffffffffffffffffffffff1673ffffffffffffffffffffffffffffffffffffffff163373ffffffffffffffffffffffffffffffffffffffff1614611ea657600080fd5b600660405180606001604052808573ffffffffffffffffffffffffffffffffffffffff168152602001838152602001848152509080600181540180825580915050906001820390600052602060002090600302016000909192909190915060008201518160000160006101000a81548173ffffffffffffffffffffffffffffffffffffffff021916908373ffffffffffffffffffffffffffffffffffffffff1602179055506020820151816001019080519060200190611f679291906125ff565b50604082015181600201555050506001600680549050036011826040518082805190602001908083835b60208310611fb45780518252602082019150602081019050602083039250611f91565b6001836020036101000a0380198251168184511680821785525050505050509050019150509081526020016040518091039020819055506004600b60008573ffffffffffffffffffffffffffffffffffffffff1673ffffffffffffffffffffffffffffffffffffffff16815260200190815260200160002081905550505050565b606060096040518060a00160405280848152602001858152602001600015158152602001600081526020018381525090806001815401808255809150509060018203906000526020600020906006020160009091929091909150600082015181600001556020820151816001015560408201518160020160006101000a81548160ff0219169083151502179055506060820151816003015560808201518160040190805190602001906120e992919061267f565b505050506002600d6000848152602001908152602001600020548154811061210d57fe5b90600052602060002090600402016003016001600980549050039080600181540180825580915050906001820390600052602060002001600090919290919091505550505050565b600160009054906101000a900473ffffffffffffffffffffffffffffffffffffffff1673ffffffffffffffffffffffffffffffffffffffff163373ffffffffffffffffffffffffffffffffffffffff16146121af57600080fd5b606060036040518060e00160405280858152602001848152602001600081526020016000815260200160008152602001600015158152602001838152509080600181540180825580915050906001820390600052602060002090600702016000909192909190915060008201518160000155602082015181600101908051906020019061223d9291906125ff565b5060408201518160020155606082015181600301556080820151816004015560a08201518160050160006101000a81548160ff02191690831515021790555060c082015181600601908051906020019061229892919061267f565b50505050600160038054905003600f600085815260200190815260200160002081905550505050565b6000600160009054906101000a900473ffffffffffffffffffffffffffffffffffffffff1673ffffffffffffffffffffffffffffffffffffffff163373ffffffffffffffffffffffffffffffffffffffff161461231d57600080fd5b60006009838154811061232c57fe5b906000526020600020906006020160030154111561234d5760019050612352565b600090505b919050565b600160009054906101000a900473ffffffffffffffffffffffffffffffffffffffff1673ffffffffffffffffffffffffffffffffffffffff163373ffffffffffffffffffffffffffffffffffffffff16146123b157600080fd5b6060600460405180608001604052808673ffffffffffffffffffffffffffffffffffffffff168152602001858152602001848152602001838152509080600181540180825580915050906001820390600052602060002090600402016000909192909190915060008201518160000160006101000a81548173ffffffffffffffffffffffffffffffffffffffff021916908373ffffffffffffffffffffffffffffffffffffffff1602179055506020820151816001015560408201518160020190805190602001906124849291906125ff565b5060608201518160030190805190602001906124a192919061267f565b50505050600160048054905003600e6000858152602001908152602001600020819055506003600b60008673ffffffffffffffffffffffffffffffffffffffff1673ffffffffffffffffffffffffffffffffffffffff1681526020019081526020016000208190555050505050565b6004818154811061251d57fe5b90600052602060002090600402016000915090508060000160009054906101000a900473ffffffffffffffffffffffffffffffffffffffff1690806001015490806002018054600181600116156101000203166002900480601f0160208091040260200160405190810160405280929190818152602001828054600181600116156101000203166002900480156125f55780601f106125ca576101008083540402835291602001916125f5565b820191906000526020600020905b8154815290600101906020018083116125d857829003601f168201915b5050505050905083565b828054600181600116156101000203166002900490600052602060002090601f016020900481019282601f1061264057805160ff191683800117855561266e565b8280016001018555821561266e579182015b8281111561266d578251825591602001919060010190612652565b5b50905061267b91906126cc565b5090565b8280548282559060005260206000209081019282156126bb579160200282015b828111156126ba57825182559160200191906001019061269f565b5b5090506126c891906126cc565b5090565b6126ee91905b808211156126ea5760008160009055506001016126d2565b5090565b9056fea265627a7a723158202f5519181ec4b96be0b89dca5a82ea09f8b7584c886a8e812450bb22821a83ca64736f6c63430005100032",
    "source": "pragma solidity >=0.5.0 <0.7.0;\r\n\r\ncontract Tender\r\n{\r\n    string name = 'Tender';\r\n    address public state_gov;// The address of the state government\r\n\r\n    // Definition of a proposal\r\n    struct Proposal\r\n    {\r\n        uint organizationId;    // Id of organization submitting the proposal\r\n        uint contId;  // Id of the proposal\r\n\r\n\r\n        uint costEstimate;          // Estimated cost of this proposal\r\n        string proposalDescription; // A description of the proposal\r\n        string proposalTitle;       // Title of the proposal\r\n        bool is_awarded;\r\n\r\n        /*uint duration; // in months\r\n        uint epoch; // in seconds\r\n        */\r\n\r\n    }\r\n\r\n    // Definition of a task\r\n    struct Task\r\n    {\r\n       uint taskId;     //Id of the task\r\n       string taskTitle;    //Title of the task\r\n       /*\r\n       string taskDescription;      // a description of the task\r\n       */\r\n\r\n       uint propId; // proposal chosen for this taskDescription\r\n       uint numVotes;\r\n       uint status;// (0-100) level of completion\r\n       bool is_completed ;\r\n\r\n       /*\r\n       uint propSubmisssionDeadline;\r\n       uint executionDeadline;\r\n       */\r\n       uint[] taskProposalsId;// proposalId's of proposals received for the given task\r\n\r\n    }\r\n\r\n\r\n    struct Organization\r\n    {\r\n        address organizationAddress;// hash key for org\r\n\r\n        uint organizationId;\r\n        string organizationTitle;\r\n\r\n        uint[] organizationProposalsId; // proposalId's of proposals submitted by this organization\r\n    }\r\n\r\n    //Definition of county\r\n    struct County\r\n    {\r\n        address countyAddress; // hash key for county\r\n        string countyTitle;   // title of county\r\n        uint countyId;        // Id of county\r\n        uint[] countyTasksId; // List of Ids of tasks involved with county\r\n    }\r\n\r\n    //Definition of Contract\r\n    struct Contract {\r\n        uint countyId;    // Id of county involved with Contract\r\n        uint taskId;    // Id of task for which contract is registred\r\n        bool isIssued;\r\n        uint votes;\r\n        uint[] ProposalIds;\r\n        mapping (address => bool) voted;\r\n    }\r\n\r\n    // Definition of Vote\r\n    struct Vote\r\n    {\r\n        uint contId;    // contract for which votes are being cast\r\n        uint vote_points; // vote points voted\r\n    }\r\n\r\n    //Definition of citizen\r\n    struct Citizen\r\n    {\r\n        address citizenAddress; // Address if the citizen\r\n        string citizenName;\r\n        uint citizenId;\r\n        // indices of votes which this citizen has cast votes for\r\n    }\r\n\r\n    // Definition of Authority\r\n    struct Authority\r\n    {\r\n        address authorityAddress;\r\n        string authorityName;\r\n        uint authorityId;\r\n        uint authWeight;\r\n        uint[] authVote;\r\n    }\r\n\r\n    //Definition of payment\r\n    struct Payment\r\n    {\r\n        address to; //Address of receiver\r\n        uint cost;  // Amount Payed\r\n    }\r\n\r\n    County[] public countys; //List of Countys registered with state\r\n    Task[] public tasks;    //List of Tasks registered with state\r\n    Organization[] public organizations;    //List of Organizations registered with state\r\n    Proposal[] public proposals;    //List of Proposals registered by the Organizations\r\n    Citizen[] public citizens;      // List of Citizens enrolled with state\r\n    Authority[] public auths;       //List of Authorities enrolled with state\r\n    Vote[] public votes;            //List of votes cast about task completion\r\n    Contract[] public contracts;    //List of contracts registered\r\n    Payment[] public payments;      //List of payments tansacted\r\n    mapping(address => uint) tag;   //A Dictionary of address mapped to respective category of user\r\n                                    // i.e , state_gov - 1, county -2, organization -3, citizen -4\r\n    mapping(uint => uint) winners;  // List consisting of organizations which have been awarded contracts\r\n    //mapping(address => bool) voted;\r\n\r\n    // Dictionary from id's to array indices\r\n    mapping(uint => uint) countyMap;// countydId  to index in county\r\n    mapping(uint => uint) orgMap; // orgI to index in organizations\r\n    mapping(uint => uint) taskMap;// taskId to index in tasks\r\n    mapping(uint => uint) propMap;// propId to index in proposals\r\n    mapping(string => uint) citiMap;// citiId to index in citizens\r\n\r\n\r\n    //mapping(uint => bool) // mapping from contract Id to bool\r\n\r\n\r\n    constructor() public\r\n    {\r\n        state_gov = msg.sender;\r\n        tag[msg.sender] = 1;\r\n    }\r\n\r\n    function registerTask(uint task_id, string memory task_title) public\r\n    {\r\n        require(msg.sender == state_gov);\r\n        uint[] memory empArr;\r\n        tasks.push(Task({taskId:task_id, taskTitle:task_title,numVotes:0, propId:0,status:0,is_completed: false, taskProposalsId:empArr}));\r\n        taskMap[task_id] = tasks.length-1;\r\n    }\r\n\r\n    // Registering a County\r\n    function registerCounty(address county_address, uint county_Id, string memory county_Title) public\r\n    {\r\n\r\n        require(msg.sender == state_gov);\r\n        uint[] memory empArr;\r\n        countys.push(County({countyAddress:county_address,countyId: county_Id, countyTitle:county_Title,countyTasksId:empArr}));\r\n        countyMap[county_Id] = countys.length - 1;\r\n        tag[county_address] = 2;\r\n    }\r\n    // Passing a contract from state government to a particular county\r\n    function passContract(uint task_id, uint county_id) public\r\n    {\r\n        uint[] memory emp;\r\n        contracts.push(Contract({countyId: county_id, taskId: task_id, isIssued: false, votes: 0, ProposalIds: emp}));\r\n        countys[countyMap[county_id]].countyTasksId.push(contracts.length-1);\r\n    }\r\n\r\n    // Registering organizations with the state governments\r\n    function registerOrganization(address org_address, uint org_Id, string memory org_title) public\r\n    {\r\n        require(msg.sender == state_gov);\r\n        uint[] memory empArr;\r\n        organizations.push(Organization({organizationAddress:org_address, organizationId:org_Id, organizationTitle: org_title,organizationProposalsId:empArr}));\r\n\r\n        orgMap[org_Id] = organizations.length-1;\r\n        tag[org_address] = 3;\r\n    }\r\n\r\n    //Issue a particular contract\r\n    function issueContract(uint cont_id) public\r\n    {\r\n        require(tag[msg.sender] == 2);\r\n        contracts[cont_id].isIssued = true;\r\n    }\r\n\r\n    //Registering new proposals\r\n    function registerProposal(uint org_Id, uint cont_Id, string memory prop_Desc, string memory prop_Title, uint cost) public\r\n    {\r\n        require(tag[msg.sender] == 3 && contracts[cont_Id].isIssued);\r\n\r\n        proposals.push(Proposal({organizationId:org_Id, contId:cont_Id, is_awarded:false, proposalDescription:prop_Desc,proposalTitle:prop_Title, costEstimate: cost}));\r\n        contracts[cont_Id].ProposalIds.push(proposals.length-1);\r\n\r\n\r\n        // the current proposal has to be added to the respective organization\r\n        organizations[orgMap[org_Id]].organizationProposalsId.push(proposals.length-1);\r\n\r\n    }\r\n\r\n    //Choosing the winning Proposal\r\n    function winningProposal(uint cont_Id, uint prop_Id) public\r\n    {\r\n        require(msg.sender==state_gov);\r\n        bool found = false;\r\n        for (uint i = 0; i < contracts[cont_Id].ProposalIds.length; i++)\r\n            if (contracts[cont_Id].ProposalIds[i] == prop_Id)\r\n                found = true;\r\n        require(found);\r\n        proposals[prop_Id].is_awarded = true;\r\n        winners[cont_Id] = prop_Id;\r\n    }\r\n\r\n    //Registering new Citizens\r\n    function registerCitizen(address cit_address,uint cit_Id,string memory cit_Name) public\r\n    {\r\n        require(msg.sender == state_gov);\r\n        citizens.push(Citizen({citizenAddress:cit_address, citizenName: cit_Name, citizenId: cit_Id}));\r\n        citiMap[cit_Name] = citizens.length-1;\r\n        tag[cit_address] = 4;\r\n    }\r\n\r\n    // Accepting Votes for a particular task\r\n    function taskingVote(uint cont_Id,bool vote) public\r\n    {\r\n        // ensuring that the vote is cast by either a citizen or government and the contract is issued\r\n        require((tag[msg.sender] == 2 || tag[msg.sender] == 4 )&&contracts[cont_Id].isIssued && !contracts[cont_Id].voted[msg.sender]);\r\n\r\n        /*\r\n        TODO :\r\n            1. Take care of case when votes are being cast for task that is not awarded yet\r\n            2. Take care of citizen voting on the same task multiple times\r\n        //*/\r\n        uint weight = 1;\r\n        if (tag[msg.sender] == 2)\r\n            weight = 5;\r\n\r\n        votes.push(Vote({contId:cont_Id,vote_points:weight}));\r\n\r\n        contracts[cont_Id].voted[msg.sender] = true;\r\n\r\n        if (vote == true)\r\n            contracts[cont_Id].votes += weight;\r\n        else\r\n            contracts[cont_Id].votes -= weight;\r\n\r\n    }\r\n\r\n    // Function to verify completion of the contract\r\n    function verifyCompletion(uint cont_id) view public returns (bool)\r\n    {\r\n        require(msg.sender==state_gov);\r\n        if (contracts[cont_id].votes > 0)\r\n            return true;\r\n        else\r\n            return false;\r\n    }\r\n\r\n    //Function to pay the organization post completion of contract\r\n    function payment (uint cont_id) public\r\n    {\r\n        // payment can be done only by the state_gov\r\n\r\n        require(verifyCompletion(cont_id));\r\n        payments.push(Payment(organizations[proposals[winners[cont_id]].organizationId].organizationAddress, proposals[winners[cont_id]].costEstimate));\r\n    }\r\n\r\n\r\n\r\n}\r\n",
    "sourcePath": "/home/dave/Desktop/East-Africa-Blockchain-Hackathon/citizen/contracts/Tender.sol",
    "compiler": {
        "name": "solc",
        "version": "0.5.16+commit.9c3226ce.Emscripten.clang"
    },
    "schemaVersion": "3.3.2",
    "updatedAt": "2020-11-21T19:34:06.062Z",
    "devdoc": {
        "methods": {}
    },
    "userdoc": {
        "methods": {}
    }
}